S00E0000526F626F74412E73726563CF
S214080000008008200D22080031780800412F0800DB
S21408001031780800552F0800692F080000000000F6
S214080020000000000000000000000000397808000A
S2140800303178080000000000497808005978080060
S21408004031780800317808003178080031780800DF
S21408005031780800317808003178080031780800CF
S21408006009180800317808000000000031780800F8
S2140800703178080031780800317808000000000060
S21408008000000000451808005D18080031780800D0
S21408009075180800317808003178080031780800AB
S2140800A0317808000000000031780800152C080098
S2140800B09D2A0800F92B0800A52B0800C12B08006C
S2140800C0DD2B0800C12A0800E52A0800092B0800CD
S2140800D0317808003178080031780800317808004F
S2140800E0CD04090031780800317808003178080016
S2140800F03178080010B5054C237833B9044B13B192
S2140801000448AFF300800123237010BDBC09072004
S2140801100000000068B30900084B10B51BB1084979
S2140801200848AFF300800848036803B910BD074BBA
S214080130002BFBD0BDE81040184700BF00000000A9
S214080140C009072068B3090068B30900000000006A
S21408015008B50248024B984708BD00BFD8090720D3
S21408016025020800FEE700BF704700BF08B5024832
S214080170024B984708BD00BFE40A072055630800ED
S21408018008B54FF47A70014B984708BD69460800D1
S21408019038B504463221114B9847114BC4F8F03055
S2140801A004F1F4000F4B98470023C4F8FC3084F899
S2140801B000310D4AC4F8F82084F808310B4BC4F80F
S2140801C0043104F586752846094B9847294604F1F4
S2140801D0F800084B9847204638BD00BFAD4D0800CC
S2140801E050140720D16B0800B0AA09002CAC0900EF
S2140801F0A15A0800496D080010B5054C2046054B65
S2140802009847054A05492046054B984710BD00BF44
S214080210D809072091010800640007206901080032
S214080220CD090900F8B504461A4B98471A4B984763
S2140802301A4E1B4930461B4FB8471B4D1B492846CC
S214080240B8471B491B481C4B984720461B4B9847EA
S21408025004F154001A4B9847D4F8F00003681B685A
S214080260984704F1F400174B984704F1F800164B2A
S214080270984704F58270154B984732213046144C3F
S214080280A0474FF47A712846A0471248124B984761
S214080290F8BD00BFD9200800AD460800AC110720FD
S2140802A06D01080001240800B0110720810108002C
S2140802B090D00300D80D0720DD0508009D4E0800E5
S2140802C0914C0800F96B0800996C0800F56F080057
S2140802D029240800A8130720CD32080080B400AFF0
S2140802E000BFBD4680BC704780B500AF0A4B984734
S2140802F00A4B98470A4B984701200A4B98470A48E2
S2140803000A4B98470A4B98470A4B98470A4B002BC4
S214080310FAD0094B9847F7E7991B080021190800F7
S214080320DD0208007D1C0800740C0720DD16080096
S21408033051010800650108008D18080080B485B0D2
S21408034000AF78600A4B1B68002B02D1084B094A9D
S2140803501A60074B1B68FB60054B1A687B681344DA
S214080360034A1360FB6818461437BD4680BC7047BE
S214080370580C0720041D072080B483B000AF7860AF
S21408038039604FF0FF3318460C37BD4680BC7047BF
S21408039080B483B000AF78604FF0FF3318460C3750
S2140803A0BD4680BC704700BF80B483B000AF78609D
S2140803B039603B684FF400525A60002318460C37E1
S2140803C0BD4680BC704700BF80B483B000AF78607D
S2140803D0012318460C37BD4680BC704780B485B0EC
S2140803E000AFF860B9607A60002318461437BD4637
S2140803F080BC704780B485B000AFF860B9607A609A
S214080400002318461437BD4680BC704780B487B0B2
S21408041000AFF860B9607A6000237B6110E000BF27
S2140804200C4B5B6903F00203002BF9D0094ABB6842
S2140804301B78D3617B6901337B61BB680133BB6082
S2140804407A697B689A42EADB7B6918461C37BD46A0
S21408045080BC704700080E4080B582B000AF786058
S21408046079680248024B9847FEE700BF7094090077
S2140804700D35090080B483B000AF7860396000BFDE
S2140804800C37BD4680BC704780B400AF4FF0FF33D2
S2140804901846BD4680BC704780B483B000AF78600D
S2140804A0054A7B681A607B6800225A607B68184693
S2140804B00C37BD4680BC704758AC090080B582B082
S2140804C000AF78607B681846064B9847064A7B68F4
S2140804D01A607B684FF47A729A607B681846083709
S2140804E0BD4680BD99040800EC94090080B483B02A
S2140804F000AF0346FB71084997F907305B09FA799C
S21408050002F01F02012000FA02F241F8232000BF81
S2140805100C37BD4680BC704700E100E080B483B06D
S21408052000AF0346FB71094997F907305B09FA796A
S21408053002F01F02012000FA02F2203341F82320BD
S21408054000BF0C37BD4680BC704700BF00E100E026
S21408055080B483B000AF7860012318460C37BD46D8
S21408056080BC704780B582B000AF78607B6818465C
S214080570044B9847044A7B681A607B681846083715
S214080580BD4680BDBD040800C094090080B584B08F
S21408059000AFF860B9603B601346FB71FB6818460D
S2140805A00C4B98470C4AFB681A60FB68BA691A61D4
S2140805B0FB68FA695A61FB68BA689A61FB68FA7957
S2140805C01A77FB683A681A62FB6818461037BD4601
S2140805D080BD00BF650508009494090080B582B008
S2140805E000AF786039604FF40C6239687868034B5E
S2140805F0984700BF0837BD4680BD00BF0106080003
S21408060080B586B000AFF860B9601346FB80FB88FB
S21408061003F460637B617A69B968F868024B9847A7
S21408062000BF1837BD4680BD2D06080080B584B0CB
S21408063000AFF860B9607A60FB681B6A1846214B01
S2140806409847FB689B6940F20222C3F82021FB68A2
S2140806509B69AC221A60FB689B697A685A60FB68DB
S2140806609B69194A1168BA68B1FBF2F212091A6254
S214080670FB689B694FF0FF32DA60FB689B69612272
S2140806809A60FB6893F91C301846104B9847FB682D
S2140806901A69FB6819690023C1F88430C2F88030EB
S2140806A0FB685A69FB6859690023C1F88430C2F8A8
S2140806B08030FB689B6950221A6000BF1037BD4621
S2140806C080BD00BF2180080090000720ED040800C8
S2140806D080B582B000AF78607B681B697A6812695B
S2140806E0D2F88420C3F880207B681B6814331B6804
S2140806F0786898477B6893F91C301846054B9847E6
S2140807007B681B6A1846044B984700BF0837BD46E7
S21408071080BD00BF1D050800A180080080B483B016
S21408072000AF78607B681B69D3F8803003F18002DD
S2140807307B681B69D3F88430D31A03F07F03184606
S2140807400C37BD4680BC704780B483B000AF786075
S2140807507B681B69D3F880207B681B69D3F88430D4
S2140807609A420CBF01230023DBB2002B02D04FF0C5
S214080770FF3307E07B681A697B681B69D3F8843007
S214080780D35CDBB218460C37BD4680BC704700BF4A
S21408079080B485B000AF78607B681B69D3F880208A
S2140807A07B681B69D3F884309A420CBF0123002368
S2140807B0DBB2002B02D04FF0FF3313E07B681A69D8
S2140807C07B681B69D3F88430D35CFB737B681B6932
S2140807D07A681269D2F88420013202F07F02C3F8E0
S2140807E08420FB7B18461437BD4680BC704700BF84
S2140807F080B483B000AF78607B685B69D3F88020EC
S2140808007B685B69D3F884309A4214BF01230023BF
S214080810DBB2002B00D0EFE77B689B695B6903F4CB
S2140808200073002B0CBF01230023DBB2002B00D083
S214080830F2E700BF0C37BD4680BC704780B485B071
S21408084000AF78600B46FB707B689B695B6903F0BA
S2140808500203002B0CBF01230023DAB27B685B6916
S214080860D3F884107B685B69D3F88030994214BF4C
S21408087001230023DBB21343DBB2002B2CD07B68AA
S2140808805B69D3F880305A1C184B1340002B03DAE8
S214080890013B63F07F030133FB607B685B69D3F839
S2140808A08420FB689A420CBF01230023DBB2002B8E
S2140808B000D0F2E77B685A697B685B69D3F88030BA
S2140808C0F978D1547B685B69FA68C3F880207B683E
S2140808D09B6902229A6003E07B689B69FA78DA6172
S2140808E0012318461437BD4680BC70477F00008039
S2140808F080B584B000AF78607B689B695B69FB60F5
S214080900FB6803F00103002B09D07B681A697B6833
S2140809109B699B69DBB219461046234B9847FB68D0
S21408092003F00203002B29D07B685B69D3F8842088
S2140809307B685B69D3F880309A4214BF0123002392
S214080940DBB2002B16D07B689B697A6851697A6897
S2140809505269D2F884208A5CD2B2DA617B685B6915
S2140809607A685269D2F88420013202F07F02C3F80E
S214080970842003E07B689B690222DA60FB6803F048
S2140809802003002B04D1FB6803F04003002B07D09C
S2140809907B689B697A689269126842F480721A606A
S2140809A000BF1037BD4680BDC97A080080B483B042
S2140809B000AF074B1B687B6072B6BFF35F8F044BB4
S2140809C000221A607B6818460C37BD4680BC704704
S2140809D00401072080B483B000AF78607B681846AF
S2140809E00C37BD4680BC704780B582B000AF7860D3
S2140809F078680A4B98470346002B14BF0123002348
S214080A00DBB2002B05D0064B01221A60BFF35F8FBE
S214080A1062B600BF0837BD4680BD00BFD5090800CE
S214080A200401072080B582B000AF78603960054BB6
S214080A30984702467B681A607B6818460837BD46A2
S214080A4080BD00BFAD09080080B582B000AF7860F1
S214080A507B681B681846034B98477B681846083718
S214080A60BD4680BDE909080090B585B000AF78603E
S214080A7007F10C0379681846094B98477B6803F01A
S214080A800F031846074B9847044607F10C03184609
S214080A90054B9847234618461437BD4690BD00BFF9
S214080AA0250A0800BD880800490A080090B589B0DC
S214080AB000AFF860B9607A602E4B1B68002B0CBF3D
S214080AC001230023DBB2002B02D04FF0FF344BE0AB
S214080AD007F11403F9681846274B9847FB6803F094
S214080AE00F031846254B9847F861FA697B689A42BF
S214080AF001D2FB6900E07B687B607B68FB61BB68B2
S214080B00BB61FB695A1EFA61002B14BF0123002340
S214080B10DBB2002B0BD0BC69631CBB61FB6803F01F
S214080B200F031846164B984703462370E9E77B6879
S214080B30002B0AD0FB6803F00F0318460F4B9847A4
S214080B400346002B01D1012300E00023002B05D02B
S214080B50FB6803F00F0318460A4B98477C6807F1B2
S214080B6014031846084B9847234618462437BD46AC
S214080B7090BD00BF600C0720250A0800BD88080045
S214080B80E1870800E9880800490A080080B584B0AB
S214080B9000AF78607B6803F00F0307F10F010122AE
S214080BA01846094B98470346012B14BF0123002318
S214080BB0DBB2002B02D04FF0FF3300E0FB7B184679
S214080BC01037BD4680BD00BFAD0A080080B588B0A6
S214080BD000AFF860B9607A607B687B61BB68BB6110
S214080BE0194B1B68002B0CBF01230023DBB2002B1C
S214080BF002D04FF0FF3323E07B68002B1FD0FB6842
S214080C00002B02D14023FB6102E04FF40073FB6126
S214080C10FA697B689A4201D97B68FB617A68FB6946
S214080C20D31A7B60FB6803F00F03FA69B9691846A4
S214080C30064B9847BA69FB691344BB61DCE77B69D6
S214080C4018462037BD4680BD600C0720A5860800DC
S214080C5080B483B000AF7860054B00221A807B68AA
S214080C609AB2044B1A8000BF0C37BD4680BC70474A
S214080C70700C0720720C072080B588B000AF0346BA
S214080C80B9607A60FB73BB68BB617B687B610023D5
S214080C903B610023FB61144B1A88144B1B889A424D
S214080CA014D27B68002B11D0BA69FB6913447A68A2
S214080CB0194600200E4B98473861FA693B69134479
S214080CC0FB617A683B69D31A7B60EAE77B699AB26C
S214080CD0054B1B8813449AB2034B1A807B69184647
S214080CE02037BD4680BD00BF700C0720720C072059
S214080CF0A58608002DE9F04186B000AF7860396017
S214080D006A4690463A68012A01DC002358E03A68A9
S214080D10501E38610246013211464FF00002D600D6
S214080D2046EA5176CD000246013211464FF00002DF
S214080D30D40044EA5174CB00034601330733DB087A
S214080D40DB00ADEB030D6B460033FB6078681F4B8A
S214080D50984703460133DBB25B00DAB2FB681A70C9
S214080D60FB6803225A700223FB75FA7D3B689A4299
S214080D701ADA7B681B78002B16D0FB7D5A1CFA758E
S214080D8019467B685A1C7A601A78FB685A54FA7DAA
S214080D903B689A4207D0FB7DFA680021D154FB7D58
S214080DA00133FB75E1E700BFFB68FA7D19460020B2
S214080DB0074B98470346002B14BF01230023DBB2DA
S214080DC0C54618461837BD46BDE8F08149430900B0
S214080DD0790C080080B582B000AF78603960074BA0
S214080DE098473A6879680020054B9847054B984716
S214080DF03B6818460837BD4680BD00BF0986080010
S214080E00298808004D86080080B584B000AF786051
S214080E107B689B88FB73FB7B002B04D17868084BA8
S214080E209847034607E0074B9847034679681846ED
S214080E30054B9847034618461037BD4680BD00BF89
S214080E40CD8A0800B18F0800718F080080B582B07F
S214080E5000AF0023FB71FB1D1846074B9847074B4E
S214080E6098470246FB1D19461046054B9847FB79DE
S214080E7018460837BD4680BD6D8A0800B18F080041
S214080E80998E080080B582B000AF0023FB71FB1D69
S214080E901846074B9847074B98470246FB1D1946C6
S214080EA01046054B9847FB7918460837BD4680BD5F
S214080EB09D8A0800B18F0800998E080080B586B014
S214080EC000AF78600020174B9847174B98470346A3
S214080ED0FB7507F10C0300221A605A601A72092380
S214080EE03B7302237B7301237B74C023FB74FA23B2
S214080EF03B7509220D4B1B8813449BB2FB81FB7D77
S214080F003B747868074B984707F10C030922194683
S214080F100020074B9847044B984701231846183774
S214080F20BD4680BD510C08004D0E0800700C072009
S214080F30790C080080B586B000AF78600020174BA3
S214080F409847174B98470346FB7507F10C03002292
S214080F501A605A601A7209233B7307237B730123AE
S214080F607B74C023FB74FA233B7509220D4B1B8840
S214080F7013449BB2FB81FB7D3B747868074B98470C
S214080F8007F10C03092219460020074B9847044B23
S214080F909847012318461837BD4680BD510C0800EF
S214080FA0850E0800700C0720790C080080B58CB0F8
S214080FB000AF78607B68DB7887F82730002387F8EF
S214080FC02F3000233B620023BB6297F82730022BA2
S214080FD006D17B68DB8818465C4B98470346B0E02A
S214080FE07B68DB8818465A4B98475A4B98470346FF
S214080FF079681846584B984738623B6A002B06D0E3
S2140810003B6A002BCCBF01230023DBB299E097F89C
S2140810102730012B1AD17B68DB88082B02D14F4B6F
S21408102001221A604D4B1B68002B01D04C4B00E088
S2140810304C4BBB62BB6A1B789AB27B68DB889A42C9
S2140810406AD97B68DB8887F82F3065E097F8273001
S214081050032B44D17B689B78002B09D1424BBB629B
S214081060BB6A1B789AB27B68DB889A4254D931E00F
S2140810707B689B78022B07D17B68DB8819463B4840
S2140810803B4B984703465CE07B689B78012B07D16F
S2140810907B68DB8819463748354B9847034650E047
S2140810A07B689B78032B13D12A4B9847024607F197
S2140810B00C0319461046304B98477B68DB881A465F
S2140810C007F10C0311461846294B9847034638E0A3
S2140810D0002336E07B68DB8887F82F301CE097F81B
S2140810E02730062B0DD1254BBB62BB6A1B789AB2FC
S2140810F07B68DB889A420FD97B68DB8887F82F30B5
S2140811000AE097F82730072B06D17B68DB88184655
S2140811101B4B9847034614E0BB6A002B01D10023FB
S2140811200FE097F82F30002B03D1BB6A1B7887F89F
S2140811302F3097F82F301A46B96A0020114B984777
S214081140012318463037BD4680BD00BFBD0E0800D7
S214081150510C0800B18F0800E98E08006C0C0720B7
S214081160349509002095090004950900089509009A
S214081170F50C0800149509002D8F080048950900FD
S214081180350F0800790C080080B400AF104BD3F870
S214081190303103F00103002B0CBF01230023DBB220
S2140811A0002B0BD00A4B5B6803F00103002B14BF1F
S2140811B001230023DBB2002B05D1E7E7044B01220D
S2140811C0C3F8602100E000BFBD4680BC704700BF82
S2140811D000C00A4080B584B000AF0346FB713B4BA5
S2140811E0BB60FB79013B032B6CD801A252F823F0B5
S2140811F095120800A7120800B91208000112080084
S214081200334B9847334B0022C3F81823314B002240
S214081210C3F828232F4B41F23012C3F808212D4A71
S2140812202C4BD3F8083143F00203C2F80831294B97
S214081230D3F8383103F48023002B0CBF0123002396
S214081240DBB2002B00D0F2E7224A224BDB6943F0E0
S2140812500403D3610023FB73FB7B352B0AD2FB7B8D
S214081260BA681344FA7B1C498A5C1A70FB7B013304
S214081270FB73F1E7174A174B1B6843F400431360E8
S214081280144B0122C3F86821124B4FF48042C3F86E
S2140812902822FEE70E4B98470E4A0E4B1B6843F46F
S2140812A000531360FEE70A4B98470A4A094B1B6827
S2140812B043F480431360FEE7054B9847054B074AFF
S2140812C05A61FEE700BF1037BD4680BD00001920F2
S2140812D08911080000C00A40549509007FF0077E6F
S2140812E080B586B000AF9F4B5B6803F00803002B01
S2140812F014BF01230023DBB2002B1DD0994A994B5B
S2140813001B6823F07F031360964A964B1B6843F0CE
S2140813108003136042F232010020934B9847934BA8
S21408132004221A608F4B4FF480529A61904B002229
S2140813301A608C4B08229A608A4B5B6803F48043D9
S214081340002B14BF01230023DBB2002B10D0894BDF
S21408135002221A600220884B98470346002B14BFC7
S21408136001230023DBB2002B02D08448844B984725
S2140813707C4B5B6803F00403002B14BF0123002397
S214081380DBB2002B02D0774B04229A60754B5B6861
S21408139003F48053002B14BF01230023DBB2002B79
S2140813A000F04481774B98470346002B0CBF012377
S2140813B00023DBB2002B40F038813B1D082219467B
S2140813C00020714B9847714B98473B79FB7397F908
S2140813D00F30002B02DA6E4B984701E06D4B9847AA
S2140813E00123FB75FB7B03F06003002B40F00881AC
S2140813F07B79BB73BB7B002B1DD13B79002B08D1B7
S21408140000210020644B984700210020624B984733
S21408141002E1624B1B78012B04D1012100205E4BB0
S214081420984703E0002100205B4B984700210020E6
S214081430594B9847F0E0BB7B012B20D1BB79012B99
S21408144011D1574B1B78012B04D101210020524B98
S214081450984703E0002100204F4B984700210020C2
S2140814604D4B9847D8E04D4B00221A7000210020BB
S214081470494B984700210020474B9847CCE0BB7B58
S214081480032B35D1BB79012B06D1454B01221A70A7
S21408149000210020404B9847BB79002B06D13F4BD4
S2140814A001221A70002100203B4B9847BB79022B7B
S2140814B040F0B2803B79002B40F0AE803B8903F0C9
S2140814C00F03002B40F0A880264A264B5B6923F0C2
S2140814D001035361234A234B1B6843F400631360DC
S2140814E03B891B0A9BB2DBB218462E4B984793E003
S2140814F0BB7B052B06D1264B9847BB7918462A4B4B
S214081500984789E0BB7B062B06D13B1D1846274B20
S21408151098470346FB757FE0BB7B072B02D1002369
S214081520FB7579E0BB7B082B07D1114B1B68DBB238
S21408153019460020184B98476EE0BB7B092B4CD108
S214081540FB7B03F01F03002B44D100233B61184AA2
S2140815503B6952F82330002B2CD03B6901333B61A2
S214081560F5E700BF00C00A4025850800F0C10A401C
S214081570600C072068C10A40690A0800841807201A
S214081580998B080071860800298808008D8608004F
S214081590E985080029860800958708005D0C07205D
S2140815A05C0C0720D511080069890800AD0F0800F3
S2140815B06800072039691F481F4B9847BB791A46A9
S2140815C01E4B1A601E4B02221A601E4B4FF48042B6
S2140815D09A6121E00023FB751EE0BB7B0A2B07D12E
S2140815E0194B1B68DBB219460020184B984713E0C6
S2140815F0BB7B0B2B10D1BB791A46134B1A600BE03A
S214081600134B98477B891846124B98473B1D18463C
S214081610114B98470346FB75FB7D002B02D00F4BFA
S214081620984703E00E4B984700E000BF1837BD46C2
S21408163080BD00BF680007207D850800600C072075
S214081640F8C10A4000C00A40680C072095870800C1
S214081650E9850800510C0800090E080029860800CC
S2140816609D88080080B582B000AF78607868084B1F
S21408167098470346002B14BF01230023DBB2002B38
S21408168002D07868034B984700BF0837BD4680BD30
S214081690BD8808002989080080B582B000AF786048
S2140816A00A480B4B98470B4B98470346002B0CBF32
S2140816B001230023DBB2002B02D0074B01221A605D
S2140816C07B6818460837BD4680BD00BFE112080093
S2140816D09D830800B9830800640C072080B582B093
S2140816E000AF78600A4B1B68002B14BF0123002349
S2140816F0DBB2002B06D0074B9847074B00221A6030
S214081700012300E0002318460837BD4680BD00BF09
S214081710640C0720CD840800600C072080B582B0D2
S21408172000AF786039607B68012B07D13B684FF6BD
S214081730FF72934202D10348034B984700BF08370D
S214081740BD4680BD740C07209916080080B500AF0A
S2140817504FF6FF710120014B984780BD1D17080002
S21408176080B483B000AF03463960FB7197F9073041
S214081770002B0BDA0D49FB7903F00F03043B3A689C
S214081780D2B21201D2B20B441A7609E0084997F988
S21408179007303A68D2B21201D2B20B4483F800235B
S2140817A000BF0C37BD4680BC704700BF00ED00E0A8
S2140817B000E100E080B582B000AF78607B68B3F1E6
S2140817C0807F01D3012311E00A4A7B6823F07F4318
S2140817D0013B53600F214FF0FF30074B9847054BEE
S2140817E000229A60034B07221A600023184608371F
S2140817F0BD4680BD10E000E06117080080B400AF69
S21408180000BFBD4680BC704780B500AF0248034B9A
S214081810984700BF80BD00BFD80D0720F108080014
S21408182080B400AF00BFBD4680BC704780B400AF30
S21408183000BFBD4680BC704780B400AF00BFBD4641
S21408184080BC704780B500AF0248034B984700BF7E
S21408185080BD00BF2C110720F108080080B500AF36
S2140818600248034B984700BF80BD00BF54110720AD
S214081870F108080080B500AF0248034B984700BF40
S21408188080BD00BF7C110720F108080080B500AFB6
S2140818901A481B4B98470346002B14BF0123002306
S2140818A0DBB2002B01D0174B98471748144B9847C4
S2140818B00346002B14BF01230023DBB2002B01D004
S2140818C0124B984712480E4B98470346002B14BFF6
S2140818D001230023DBB2002B01D00E4B98470E489D
S2140818E0074B98470346002B14BF01230023DBB29F
S2140818F0002B01D0094B984700BF80BDD80D0720A4
S2140819001D070800FD1708002C11072021180800DD
S214081910541107202D1808007C11072039180800D4
S21408192090B583B000AF474B9847474B1B68474A6C
S214081930A2FB03239B091846454B98470346002BF2
S21408194014BF01230023DBB2002B00D0FEE7414B77
S214081950984700237B607B684E2B07D80021786861
S2140819603D4B98477B6801337B60F4E73B4B4FF071
S214081970FF32C3F8A0203A4B4FF0FF32C3F8A0203E
S214081980384B4FF0FF32C3F8A020374B4FF0FF32EA
S214081990C3F8A020314801214FF440720023334C8D
S2140819A0A047012100202C4B98472C4801214FF4D2
S2140819B0406200232D4CA047284801214FF440528E
S2140819C000232A4CA0472848022130220023274C0F
S2140819D0A047234801214FF440620023234CA04728
S2140819E01E48012103220023204CA0471C48012141
S2140819F04FF4404200231D4CA04725201C4B984717
S214081A00114B19680C231B4A1B481C4CA047012382
S214081A104FF4401200211848194CA0470022002114
S214081A201548184B98474FF0FF311348164B984700
S214081A301148164B9847164B984700BF0C37BD46BB
S214081A4090BD00BFAD22080090000720D34D62105D
S214081A50B5170800BD340900291F0800000E0E40FF
S214081A6000100E4000120E4000140E40FD7E0800C6
S214081A7021800800002D310100000C40197B080069
S214081A80797C08001D7C0800F97C0800DD7C0800CD
S214081A90B91C080090B585B002AF786039607B68DD
S214081AA0012B44D13B684FF6FF7293423FD1224840
S214081AB0224B98472248214B9847214B01931E4BAF
S214081AC00093082308221F491F48204CA047204897
S214081AD01A4B98471F48194B98471F48174B984763
S214081AE01E48164B98471E48144B98471D48134BDC
S214081AF098471A4B0193164B0093112311221A4943
S214081B001A481B4CA047164B0193124B00931223FE
S214081B10122218491848164CA047124B01930E4B30
S214081B2000931423142215491548114CA04700BFEA
S214081B300C37BD4690BD00BFC80C0720957A080034
S214081B40500D072000080E40D80D07208D05080008
S214081B50FC0D0720840E07200C0F0720940F072083
S214081B601C100720A4100720008009402C1107200D
S214081B70BD89080000C009405411072000400A40EB
S214081B807C11072080B500AF4FF6FF710120014B8E
S214081B90984780BD951A080080B500AF0248034BE9
S214081BA0984700BF80BD00BF501A0E40A1890800A4
S214081BB080B500AF024B98470346184680BD00BF65
S214081BC09982080080B586B000AF294B9B687B6178
S214081BD0284B5B6803F08063002B05D1254B5B6AB6
S214081BE003F40063002B01D0012300E000233B61CF
S214081BF0214B9847F8607B69BB603B697B60FB6854
S214081C003B601B4B9B687B611A4B5B6803F08063E9
S214081C10002B05D1174B5B6A03F40063002B01D039
S214081C20012300E000233B61134B9847F8607A686D
S214081C303B699A42DFD13A68FB689A42DBD1BA68B8
S214081C407B699A42D7D33A687B6813444FF47A7212
S214081C5002FB03F2064B5968BB68CB1A43F2C30172
S214081C6001FB03F31B0D134418461837BD4680BD09
S214081C7010E000E000ED00E09982080080B584B02E
S214081C8000AF78607B68002B0DD0094B9847F8604A
S214081C90084B9847064B98470246FB68D21A7B685B
S214081CA09A42F5D300E000BF1037BD4680BD00BF9E
S214081CB0998208008178080080B400AF00BFBD464E
S214081CC080BC7047B0B582B000AF786039608F4985
S214081CD07A681346DB009B1A9B000B440C331B7870
S214081CE0002B00F00A818A4A7B6813441B7803F0AD
S214081CF00F03042B0ED185497A681346DB009B1A1E
S214081D009B000B44193393F90030DBB2194681481F
S214081D10814B98477E4A7B6813441B7803F00F0371
S214081D20022B29DC7A4A7B6813441B78002B23D0C5
S214081D30774A7B6813441B7803F00F03022B03D102
S214081D403B68002B00F0DB80714A7B6813441B78E5
S214081D5003F00F03012B03D13B68022B00F0CF8062
S214081D606B4A7B6813441B7803F00F03032B03D1DD
S214081D703B68012B00F0C3803B68012B6AD0012B1F
S214081D8002D3022B33D0BDE060497A681346DB00E5
S214081D909B1A9B000B4408331B6818465F4B9847F2
S214081DA05A497A681346DB009B1A9B000B4418684E
S214081DB056497A681346DB009B1A9B000B4404338B
S214081DC01A6800230321564CA047514A7B681344DF
S214081DD01B785BB223F00F035BB243F002035BB2DF
S214081DE0D9B24B4A7B6813440A461A708AE04749B8
S214081DF07A681346DB009B1A9B000B4408331B6863
S214081E001846464B984741497A681346DB009B1AA2
S214081E109B000B4418683D497A681346DB009B1AFA
S214081E209B000B4404331A68012303213C4CA0474B
S214081E30374A7B6813441B785BB223F00F035BB208
S214081E4043F001035BB2D9B2314A7B6813440A46B1
S214081E501A7057E02D497A681346DB009B1A9B00D8
S214081E600B4418682A4A7B6813441B781B09DBB2A4
S214081E70002B01D0052400E0042424497A68134680
S214081E80DB009B1A9B000B4404331D681F497A68C5
S214081E901346DB009B1A9B000B4410331B682A462C
S214081EA021461F4CA0471A4A7B6813441B785BB22E
S214081EB023F00F035BB243F003035BB2D9B2144AB4
S214081EC07B6813440A461A7010497A681346DB0082
S214081ED09B1A9B000B441B689B69B3F1FF3F10D10C
S214081EE00A497A681346DB009B1A9B000B440833A2
S214081EF01B6818460B4B984703E000BF02E000BF7C
S214081F0000E000BF0837BD46B0BD00BF8C9509008D
S214081F10780C072000000C40B97C080021800800D7
S214081F20FD7E0800A180080090B585B002AF7860F5
S214081F30396039497A681346DB009B1A9B000B44C4
S214081F400C331B78002B62D0344A7B6813441B780A
S214081F5003F00F03052B03D101217868304B98470F
S214081F602E4A7B6813441B7803F00F03DAB23B68EB
S214081F70DBB21B01DBB21343D9B2284A7B68134491
S214081F800A461A7024497A681346DB009B1A9B0097
S214081F900B44186820497A681346DB009B1A9B0096
S214081FA00B4404331B6819461E4B98470346002B00
S214081FB015D119497A681346DB009B1A9B000B4417
S214081FC0186815497A681346DB009B1A9B000B4471
S214081FD004331B683A681946134B984718E00E49AD
S214081FE07A681346DB009B1A9B000B4418680A495C
S214081FF07A681346DB009B1A9B000B440433196867
S2140820000123009300233A68084CA04700E000BF6D
S2140820100C37BD4690BD00BF8C950900780C07208C
S214082020C51C0800C57F0800317D0800997E080099
S21408203080B582B000AF7860234A7B6813441B786B
S21408204003F00F03032B06D11F4A7B6813441B7843
S2140820501B09DBB233E01C4A7B6813441B7803F089
S2140820600F03042B03D100217868184B98471849AA
S2140820707A681346DB009B1A9B000B440C331B78CC
S214082080002B01D100231AE011497A681346DB00B9
S2140820909B1A9B000B4418680D497A681346DB00A8
S2140820A09B1A9B000B4404331B681A460321094BF2
S2140820B098470346012B01D1012300E00023184668
S2140820C00837BD4680BD00BF780C0720C51C080031
S2140820D08C9509005D7D080080B500AF01210420BD
S2140820E0494B984701210520474B98470121062070
S2140820F0454B984701210720434B98470121082064
S214082100414B9847012109203F4B984701210A2057
S2140821103D4B984701210B203B4B984701210C204B
S214082120394B984701210D20374B98470021162038
S214082130354B984700211720334B98470021182025
S214082140314B9847002119202F4B984702211F2012
S2140821502D4B984702211A202B4B984702211B200B
S214082160294B984702211C20274B984700211D2001
S214082170254B984700211E20234B984701212020F5
S214082180214B9847012122201F4B984701212320E5
S2140821901D4B9847012124201B4B984701212520D9
S2140821A0194B984701212620174B984701212720CD
S2140821B0154B984701212C20134B984701212F20B7
S2140821C0114B9847012130200F4B984701213120A9
S2140821D00D4B9847012132200B4B9847012133209D
S2140821E0094B984701213420074B98470121352091
S2140821F0054B984701214820034B98470121492061
S214082200014B984700BF80BDC51C080080B582B04A
S21408221000AF1D4B7B601D4B3B607A683B689A425B
S2140822200CD007E03B681A1D3A607A68111D796081
S21408223012681A603B68164A9342F3D3154B3B6004
S21408224004E03B681A1D3A6000221A603B68124A8E
S2140822509342F6D3114B7B60114A7B6823F06043A8
S21408226023F07F0393607B68B3F1005F09D37B6834
S2140822700C4A934205D80A4A094B9B6843F0005318
S2140822809360094B9847FEE768B3090000000720EB
S214082290BC090720BC090720041D07200000080009
S2140822A000ED00E0FFFF0F20E902080080B400AF51
S2140822B02A4B4FF480621A60294B4FF480621A60EA
S2140822C0284B1B6A03F08073002B09D1254B264A3E
S2140822D01A6200BF234B9B6E03F00103002BF9D054
S2140822E0204B224A1A6200BF1E4B9B6E03F48033B3
S2140822F0002BF9D01B4A1B4B1B6B23F0030343F040
S2140823000103136300BF174B9B6E03F00803002BF3
S214082310F9D0144B164A9A6200BF124B9B6E03F014
S2140823200203002BF9D00F4B11221A6300BF0D4B86
S2140823309B6E03F00803002BF9D00A4B12221A638F
S21408234000BF084B9B6E03F00803002BF9D0094B1F
S214082350094A1A6000BFBD4680BC7047000A0E4096
S214082360000C0E4000060E40090837000908370121
S214082370013F0D209000072000BD010580B483B002
S21408238000AF0346FB71084997F907305B09FA79ED
S21408239002F01F02012000FA02F241F8232000BFD3
S2140823A00C37BD4680BC704700E100E080B483B0BF
S2140823B000AF0346FB71094997F907305B09FA79BC
S2140823C002F01F02012000FA02F2603341F82320CF
S2140823D000BF0C37BD4680BC704700BF00E100E078
S2140823E080B483B000AF78600B467B807B687A88C1
S2140823F01A807B6818460C37BD4680BC704700BFFD
S21408240080B483B000AF786039607B681B88194653
S214082410044A3B6842F821307B6818460C37BD46AC
S21408242080BC70479400072090B583B000AF7860F2
S21408243039603B68002B04DD3B6819467868294BF1
S21408244098477B681B88284ADB001344D3E90001B9
S214082450264C4FF000024FF00003A0470346002B1F
S21408246005D04FF00002224B7868224988477B68DF
S2140824701B881946204A0B465B000B449B001344F6
S214082480083393F9003018461C4B98477B681B881E
S2140824901946194A0B465B000B449B001344083345
S2140824A093F900301846164B98477B681B881946E0
S2140824B0114A0B465B000B449B00134418687B6864
S2140824C01B8819460C4A0B465B000B449B001344BA
S2140824D004331B6819460B4B98477B6818460C371D
S2140824E0BD4690BD492A0800B8000720752C09008B
S2140824F00000F03F81280800B89F0900AD230800B7
S2140825007D230800F1810800F0B58DB000AFC7E95B
S21408251002017A608C4A07F114031068516803C3F5
S2140825200323FB620323BB624FF0FF437B62874CA7
S214082530D7E9022382A1D1E90001A04703460C4649
S2140825401D462646FB6A5B0007F13002134413F863
S2140825501B2C7F4B1046984702467E4B10469847E2
S21408256002460B46794C28463146A04703460C4699
S21408257019462246784B08461146984703463B625A
S214082580FB6A5B0007F13002134413F81B3C1A463B
S214082590724B104698470546714B4FF00001386A53
S2140825A098470346002B15D06A4B386A98476D4CF7
S2140825B04FF000026C4BA04703460C4619462246CD
S2140825C06A4B0846114698470246644B1046984799
S2140825D0024614E05F4B386A9847654C4FF0000295
S2140825E0614BA04703460C46194622465F4B0846F1
S2140825F0114698470246594B1046984702465D4B87
S2140826001146386A984703461A465B4B4FF0000156
S214082610104698470346002B39D0514B4FF000011F
S214082620386A98470346002B15D04A4B386A9847AD
S2140826304C4C4FF000024C4BA04703460C4619463C
S21408264022464A4B0846114698470246434B1046D0
S2140826509847024614E03F4B386A9847444C4FF078
S2140826600002414BA04703460C46194622463F4BFC
S2140826700846114698470246384B10469847024681
S2140826803C4B1146386A984703461A4639E0344B9D
S2140826904FF00001386A98470346002B15D02D4B9B
S2140826A0386A98472F4C4FF000022F4BA047034636
S2140826B00C46194622462D4B0846114698470246B0
S2140826C0264B10469847024614E0224B386A98472D
S2140826D0274C4FF00002244BA04703460C461946E9
S2140826E02246224B08461146984702461B4B104680
S2140826F0984702461F4B1146386A9847034683F0A8
S21408270000421E4B1146284698470346FB611C4B61
S214082710796AF86998470346002B03D0FB6ABB62C0
S214082720FB697B62FB6A5A1EFA62002BCCBF012348
S2140827300023DBB2002B25D0F9E600BFAFF30080FC
S21408274000000000F406944124A00900D1290900DD
S214082750792F0900D52609006D2D0900812F09005B
S2140827608D330900192409000000E03FDD2C09001C
S21408277015240900152E0900A1330900293009007F
S21408278065330900344CD7E9022331A1D1E90001A9
S214082790A04703460C461D462646BB6A5B0007F163
S2140827A03002134413F81B2C2C4B1046984702464D
S2140827B02B4B1046984702460B46274C2846314670
S2140827C0A04703460C4619462246264B084611469D
S2140827D0984703463B62244B4FF00001386A9847F7
S2140827E00346002B12D01E4B386A98471F4C4FF0F2
S2140827F000021F4BA04703460C46194622461D4BAF
S21408280008461146984703461A4611E0144B386A9C
S2140828109847194C4FF00002154BA04703460C4644
S21408282019462246134B08461146984703461A4649
S2140828307B681A60BB6A5B0007F13002134413F822
S2140828401C3C18463437BD46F0BD00BFAFF30080C9
S21408285000000000F4069441D1290900792F0900E8
S214082860D52609006D2D09008D33090019240900A5
S2140828700000E03FDD2C09001524090000000000D8
S214082880B0B58AB000AFF860C7E90023624C4FF0D5
S21408289000024FF00003D7E90001A0470346002BCB
S2140828A004D04FF000035D4CC7E90034FB681B8872
S2140828B019465B4A0B465B000B449B001A4407F11B
S2140828C0180307CA83E8070000237B610020554BDE
S2140828D0984797F920301846534B984707F1140342
S2140828E01A46D7E90001514B9847034687F8273020
S2140828F097F82730012B19D0022B2DD0002B41D169
S214082900FB681B881D467A69494B1046984702465D
S2140829100B46484C38A1D1E90001A04703460C46AF
S2140829204549EA000A44C2E9003441E0FB681B88CE
S2140829301D467A693E4B1046984702460B463D4C64
S2140829402FA1D1E90001A04703460C463A49EA0000
S2140829500A44C2E900342BE0FB681B881D467A69E6
S214082960334B1046984702460B46324C26A1D1E90F
S2140829700001A04703460C462F49EA000A44C2E96C
S214082980003415E0FB681B881D467A69284B1046FC
S214082990984702460B46274C1DA1D1E90001A047DF
S2140829A003460C462449EA000A44C2E9003400BF3C
S2140829B0B869F96997F8273043F440431A461F4B1D
S2140829C09847BB69F9697A6918461D4B9847BA69EA
S2140829D0FB699B011344243310221A60BA69FB6909
S2140829E09B01134428336FF010021A60FB681846E0
S2140829F02837BD46B0BD00BF00000000F40684417D
S214082A0000000000F406644100000000F40644419B
S214082A1000000000F4062441752C09000000F03F71
S214082A20B89F090061810800218008000925080070
S214082A3091260900D1290900B800072099810800C5
S214082A40598208000000000090B585B000AF786095
S214082A5039600F4B3868984702460B460D4C0AA15A
S214082A60D1E90001A04703460C46C7E90234D7E976
S214082A7002237868084988477B6818461437BD4695
S214082A8090BD00BFAFF300800000000080842E4198
S214082A9091260900D12909008128080080B500AFD1
S214082AA001210448044B9847044B5B68984700BFCD
S214082AB080BD00BF0000084035820800940007204B
S214082AC080B500AF00210448044B9847044B9B6927
S214082AD0984700BF80BD00BF0080084035820800C8
S214082AE09400072080B500AF01210448044B98479E
S214082AF0044BDB69984700BF80BD00BF00800840D4
S214082B00358208009400072080B500AF02210448EB
S214082B10044B9847044B1B6A984700BF80BD00BF0C
S214082B2000800840358208009400072080B582B0EF
S214082B3000AF786039607B68012B18D13B684FF688
S214082B40FF72934213D100210B480C4B9847012182
S214082B500B480A4B984706210A48084B984707210E
S214082B600948064B984708210848044B984700BF71
S214082B700837BD4680BD00BFA4110720E123080022
S214082B80A8110720AC110720B0110720B4110720A0
S214082B9080B500AF4FF6FF710120014B984780BD06
S214082BA02D2B080080B500AF002203490020034BF8
S214082BB0984700BF80BD00BF00400840312C080081
S214082BC080B500AF012203490120034B984700BF98
S214082BD080BD00BF00400840312C080080B500AF1B
S214082BE0022203490220034B984700BF80BD00BF5E
S214082BF000400840312C080080B500AF0222034987
S214082C000320034B984700BF80BD00BF0000084064
S214082C10312C080080B500AF002203490420034B7E
S214082C20984700BF80BD00BF00000840312C080050
S214082C3090B583B000AF03463960FB711346BB718D
S214082C40BB793A689B01134420331B68FB797D4A9D
S214082C50D35C5BB2DBB2DB09DBB2002B0CD0BB79F2
S214082C60BA79396892010A44126842F0040239684F
S214082C709B010B441A603BE0FA7913465B00134449
S214082C809B001946FB796F4AD35C5BB20B446E4ACD
S214082C901278934214DAFA7913465B0013449B00C1
S214082CA01946FB79674AD35C5BB20B44674A12F84D
S214082CB03330C3F38013DBB2012B01D1012300E0CC
S214082CC00023002B14D0FA7913465B0013449B00AC
S214082CD01946FB795B4AD35C5BB20B445B4A12F835
S214082CE03330C3F30503DBB200211846584B984728
S214082CF0FB79544AD25C52B2D2B20132D2B251B245
S214082D00504AD154FA7913465B0013449B0019467F
S214082D10FB794C4AD35C5BB20B444B4A127893421D
S214082D2007DAFB79474AD35C5BB20B2B01DC01233D
S214082D3000E00023002B44D0B879BB793A689B01A1
S214082D40134410331968FA7913465B0013449B0042
S214082D501C46FB793B4AD35C5BB223443B4ADB0008
S214082D6013445B68CA18396883010B4414331A6025
S214082D70FA7913465B0013449B001946FB79314ADF
S214082D80D35C5BB20B44314A12F83330C3F380137A
S214082D90DBB2002B51D0FA7913465B0013449B0034
S214082DA01946FB79274AD35C5BB20B44274A12F8CC
S214082DB03330C3F30503DBB201211846244B98478A
S214082DC03BE0BB793A689B01134410331B681A1D15
S214082DD0204B1B682049A1FB03139B0C44F620617B
S214082DE001FB03F35B099A4234BF01230023DBB2DD
S214082DF0002B11D0BB79174A12681749A1FB02129B
S214082E00920C44F6206101FB02F2520939689B01D4
S214082E100B4414331A600CE0BB79BA79396892010E
S214082E200A4410321268043239689B010B44143382
S214082E301A60FB79034AFF21D15400BF0C37BD4600
S214082E4090BD00BF9C13072098130720B8110720D1
S214082E50291F08009000072083DE1B4380B485B036
S214082E6000AF78607B6842F6E06202FB03F3BB6063
S214082E700023FB6003E000BFFB680133FB60FA68D1
S214082E80BB689A42F7D300BF1437BD4680BC70476C
S214082E9080B584B000AF786072B601210D20104B63
S214082EA098470023FB6012E001210D200D4B984740
S214082EB04FF496700C4B984700210D20094B984705
S214082EC04FF49670084B9847FB680133FB60FA6826
S214082ED07B689A42E8DB4FF4FA60034B9847E0E7D2
S214082EE0C51C0800291F08005D2E080080B500AF25
S214082EF00120024B984700BF80BD00BF912E0800F6
S214082F0080B500AF0220024B984700BF80BD00BFC7
S214082F10912E080080B500AF014B984700BF80BDD2
S214082F206501080080B582B000AF7860396003207C
S214082F30024B984700BF0837BD4680BD912E080053
S214082F4080B500AF0420024B984700BF80BD00BF85
S214082F50912E080080B500AF0520024B984700BFA9
S214082F6080BD00BF912E080080B500AF0620024B3A
S214082F70984700BF80BD00BF912E080080B400AF00
S214082F8000BFBD4680BC704780B582B000AF786091
S214082F9039607B6839681846034B98477B6818463B
S214082FA00837BD4680BD00BF4990080080B400AF12
S214082FB0024B1846BD4680BC704700BFA8130720C2
S214082FC080B500AF00214820014B984700BF80BD60
S214082FD0291F080080B500AF01214820014B9847FB
S214082FE000BF80BD291F080080B582B000AF78609A
S214082FF07B681846034B98477B6818460837BD46D3
S21408300080BD00BF4591080090B5A3B000AF7860BA
S2140830107B68C7F88430D7F88430002B37D17F4BCD
S2140830209847044607F130037D4918467D4B984774
S21408303007F1300207F12403114618467A4B9847E1
S21408304007F1240379491846794B984703461A46E8
S21408305007F1180311461846764B984707F11803E8
S21408306019462046744B984707F118031846734BC1
S214083070984707F124031846714B984707F1300321
S21408308018466E4B98474FF47A706E4B984707F180
S2140830900C0318466C4B9847604B9847044607F154
S2140830A054036A4918465F4B984707F1540207F1DC
S2140830B04803114618465C4B984707F10C0207F17F
S2140830C04803114618465A4B98470346604918461F
S2140830D0574B984703461A4607F13C0311461846CD
S2140830E0544B984707F13C0319462046524B9847DD
S2140830F007F13C031846514B984707F14803184612
S2140831004F4B984707F1540318464C4B9847D7F847
S21408311084301B89002B23D04E4B98470346BB6050
S214083120D7F884301B68002B0BD0D7F884301B6880
S2140831301B6804331B68D7F8842012681046984723
S21408314003E0D7F884305B689847D7F884301B8943
S2140831501A4607F10803114618463F4B9847DFE71B
S214083160D7F884301B68002B0BD0D7F884301B6840
S2140831701B6804331B68D7F88420126810469847E3
S21408318003E0D7F884305B689847244B9847044692
S21408319007F178032D491846224B984707F178021D
S2140831A007F16C03114618461F4B984707F10C02A7
S2140831B007F16C03114618461D4B984703462749E6
S2140831C018461B4B984703461A4607F160031146F4
S2140831D01846184B984707F1600319462046164BC1
S2140831E0984707F160031846144B984707F16C0395
S2140831F01846134B984707F1780318460F4B98471D
S214083200064B98470246164B1B6819461046154B40
S214083210984700BF8C37BD4690BD00BFAD2F08004D
S2140832202CA0090009900800892F080058A009005A
S2140832301D95080049900800453808004591080083
S214083240E92F08007D1C0800CDF0080074A00900CE
S21408325080A0090071E1080009DE080090A00900B6
S214083260A4130720593E080080B582B000AF7860E6
S2140832707B68002283F864207B6800229A667B6855
S214083280002283F86C207B6800221A837B68002261
S2140832905A837B6800221A677B6800225A677B6815
S2140832A000229A677B68182200211846064B984722
S2140832B07B681C33482200211846034B98477B68D6
S2140832C018460837BD4680BDC53C090090B599B07C
S2140832D000AF78607B681B6F002B37D0534B98473E
S2140832E0044607F1240352491846524B984707F1FB
S2140832F0240207F11803114618464F4B984707F162
S21408330018034E4918464E4B984703461A4607F187
S2140833100C03114618464B4B984707F10C03194601
S2140833202046494B984707F10C031846474B9847E1
S21408333007F118031846464B984707F12403184622
S214083340424B98474FF47A70424B98477868424BFE
S21408335098470246414B1A607868414B98470246A0
S2140833607B689A6700210D203E4B98477B6893F947
S2140833706C30194648203B4B98477B6801221A67F1
S214083380394B984702467B685A6707F1480337491E
S2140833901846284B984707F1480207F13C031146A0
S2140833A01846254B984707F13C0331491846244BE5
S2140833B0984702467B685B6F194610462D4B984720
S2140833C003462D4918461E4B984703461A4607F1EA
S2140833D03003114618461B4B984707F13003194629
S2140833E07868194B984707F130031846174B9847E3
S2140833F007F13C031846164B984707F1480318464A
S214083400124B98471D4B984707F154031C4918461A
S214083410084B984707F15403194678680A4B9847AB
S21408342007F154031846094B9847FEE7AD2F0800E6
S2140834302CA0090009900800892F0800A0A0090000
S2140834401D95080049900800453808004591080071
S214083450E92F08007D1C0800453C0800A413072037
S214083460213F0800291F0800B11B080074A00900A6
S214083470D0A0090001960800F8A009009DDF080002
S21408348000A1090090B5ADF5017D00AF3B1D1860A1
S21408349007F108031846B64B984707F1F803B549ED
S2140834A01846B54B984707F1F8023B1D11461868B1
S2140834B0B24B984707F1F8031846B14B984707F5FB
S2140834C08273B0491846AC4B984707F582723B1D85
S2140834D011461868A94B984707F582731846A84BF3
S2140834E0984707F58873A8491846A34B984707F5E1
S2140834F088723B1D11461868A04B984707F58873D5
S21408350018469F4B984707F1080207F58E73114631
S2140835101846994B984707F58E723B1D1146186852
S214083520964B984707F58E731846954B984707F5B8
S214083530947396491846904B984707F594723B1D26
S214083540114618688D4B984707F5947318468C4BA8
S214083550984707F59A738E491846874B984707F594
S2140835609A723B1D11461868844B984707F59A735C
S2140835701846834B984707F5A073834918467E4B31
S214083580984707F5A0723B1D114618687B4B98476D
S21408359007F5A07318467A4B984707F5B2737D4926
S2140835A01846754B984707F5B27207F5AC7311467F
S2140835B01846794B98473B1D1B6893F86430991C4E
S2140835C007F5B8730A221846744B984707F5B87279
S2140835D007F5AC7311461846714B98470346714970
S2140835E01846714B9847044607F5BE730A2207210A
S2140835F018466A4B984707F5BE7319462046684B27
S214083600984703461A4607F5A67311461846674BA9
S214083610984707F5A6723B1D11461868574B9847FA
S21408362007F5A6731846564B984707F5BE7318460F
S214083630534B984707F5B8731846514B984707F504
S214083640AC7318465A4B984707F5B27318464C4B56
S214083650984707F5D07357491846474B984707F5D4
S214083660D07207F5CA73114618464B4B98473B1D50
S2140836701B685B8B1A4607F5CA73114618464E4BED
S214083680984703461A4607F5C47311461846474B2B
S214083690984707F5C4723B1D11461868374B98477C
S2140836A007F5C4731846364B984707F5CA73184685
S2140836B03F4B984707F5D0731846314B984707F5A0
S2140836C0E2733E4918462C4B984707F5E27207F511
S2140836D0DC7311461846304B98473B1D1B681B8BFE
S2140836E01A4607F5DC7311461846334B98470346C7
S2140836F01A4607F5D673114618462C4B984707F511
S214083700D6723B1D114618681C4B984707F5D673AA
S21408371018461B4B984707F5DC731846244B984702
S21408372007F5E2731846164B984707F5F4732449CD
S2140837301846114B984707F5F47207F5EE731146CD
S2140837401846154B98473B1D1B685A6F07F5EE73CE
S214083750114618461B4B984703461B491846124BFA
S214083760984703461A4607F5E873114618462DE0AB
S21408377091EF08001CA109000990080045380800C8
S214083780459108004CA109007CA10900ACA10900DC
S214083790F8A1090028A20900892F0800BD90080092
S2140837A0D594080038A209001D950800499008001D
S2140837B0E92F08003CA20900BD9508004CA20900A4
S2140837C05CA2090001960800F8A00900174B984764
S2140837D007F5E8723B1D11461868154B984707F51C
S2140837E0E8731846134B984707F5EE731846124BBE
S2140837F0984707F5F47318460E4B984707F5FA737B
S2140838000E4918460E4B984707F5FA723B1D1146A7
S2140838101868074B984707F5FA731846054B9847F4
S21408382000BF07F50177BD4690BD00BF4990080068
S2140838304538080045910800E92F08007CA10900D2
S2140838400990080090B583B000AF786039607B684F
S2140838509B6F002B15D07B68986F002300220021F1
S2140838600D4CA04739680D480D4B98470B480D4B33
S21408387098477B68986F002300220021064CA047D3
S21408388006E039680548064B98470448054B9847AC
S21408389000BF0C37BD4690BD4DD40800D80D072094
S2140838A0F9790800F107080090B587B002AFF8600C
S2140838B0B9607A607B807A88002301933B8C0093FA
S2140838C013467A68B968F868024CA04700BF1437F0
S2140838D0BD4690BDD9380800B0B5B2B004AFF860A0
S2140838E0B9607A607B80FB681B6F002B37D0B84BBB
S2140838F09847044607F12803B6491846B64B984732
S21408390007F1280207F11C0311461846B34B9847DF
S21408391007F11C03B2491846B24B984703461A46A5
S21408392007F1100311461846AF4B984707F11003E6
S21408393019462046AD4B984707F110031846AC4B7E
S214083940984707F11C031846AA4B984707F128031F
S2140839501846A74B98474FF47A70A74B9847FB68CA
S21408396093F86430052B37D9994B9847044607F1E6
S2140839704C0398491846984B984707F14C0207F1AC
S214083980400311461846954B984707F140039B4954
S2140839901846944B984703461A4607F134031146CF
S2140839A01846914B984707F13403194620468F4B23
S2140839B0984707F1340318468D4B984707F140039C
S2140839C018468C4B984707F14C031846884B98477F
S2140839D04FF47A70884B9847B7F8C830052B6DD9DE
S2140839E07B4B9847044607F170037A4918467A4B8A
S2140839F0984707F1700207F1640311461846774B9B
S214083A00984707F17C03B9681846734B984707F13F
S214083A107C0207F1640311461846794B984703461B
S214083A20784918466F4B98470246B7F8C830194683
S214083A301046754B9847034674491846694B98478D
S214083A40054607F188030A2205211846704B984751
S214083A5007F1880319462846694B984703466D4977
S214083A601846604B984703461A4607F1580311460E
S214083A7018465D4B984707F15803194620465B4B96
S214083A80984707F158031846594B984707F1880393
S214083A901846574B984707F17C031846544B9847E7
S214083AA007F164031846534B984707F17003184606
S214083AB04F4B98474FF47A704F4B9847FB6893F8EC
S214083AC064301946FA680B465B000B449B001344A7
S214083AD01C337A681A60FB6893F864301946FA68EB
S214083AE00B465B000B449B001344203300221A60ED
S214083AF0FB6893F864301946FA680B465B000B447B
S214083B009B0013442433B7F8CC201A80FB6893F83C
S214083B1064301A4613465B0013449B001833FA6851
S214083B2013441C1DB7F8C830FA6892F8642011468A
S214083B30FA6852F821207888002103910021029122
S214083B400192009323460246B9683348334CA0478F
S214083B500346012B14BF01230023DBB2002B63D0DE
S214083B601B4B9847044607F1AC031A4918461A4BEC
S214083B70984707F1AC0207F1A00311461846174B01
S214083B80984707F1A00326491846164B9847034658
S214083B901A4607F1940311461846134B984707F13F
S214083BA0940319462046114B984707F19403184684
S214083BB00F4B984707F1A00318460E4B984707F196
S214083BC0AC0318460A4B98474FF47A702AE000BFB1
S214083BD0AD2F08002CA0090009900800892F0800BE
S214083BE068A209001D950800499008004538080095
S214083BF045910800E92F08007D1C0800A0A20900CE
S214083C00D5940800B4A20900BD950800C0A2090012
S214083C10BD900800D8A209000930080085DC080015
S214083C2028A30900064B9847FB6893F864300133CD
S214083C30DAB2FB6883F8642000BFB837BD46B0BD6B
S214083C407D1C080090B597B000AF78607B681B6F46
S214083C50002B37D0414B9847044607F124034049C8
S214083C601846404B984707F1240207F118031146F7
S214083C7018463D4B984707F118033C4918463C4BF5
S214083C80984703461A4607F10C0311461846394B5F
S214083C90984707F10C0319462046374B984707F113
S214083CA00C031846354B984707F118031846344B4B
S214083CB0984707F124031846304B98474FF47A7014
S214083CC0304B98470322002101202F4B98477865F0
S214083CD07B6D002B37D1214B9847044607F14803E4
S214083CE01F4918461F4B984707F1480207F13C033F
S214083CF0114618461C4B984707F13C0323491846BB
S214083D001B4B984703461A4607F1300311461846D8
S214083D10184B984707F1300319462046164B984724
S214083D2007F130031846154B984707F13C03184629
S214083D30134B984707F148031846104B98474FF41B
S214083D407A70104B98477B681B8B01339AB27B6856
S214083D501A837B6D18465C37BD4690BDAD2F0800AC
S214083D602CA0090009900800892F080040A3090024
S214083D701D95080049900800453808004591080038
S214083D80E92F08007D1C0800BDD2080078A30900AA
S214083D9090B58DB000AF786039607B681B6F012BDB
S214083DA037D0214B9847044607F124031F49184685
S214083DB01F4B984707F1240207F1180311461846C7
S214083DC01C4B984707F118031B4918461B4B984786
S214083DD003461A4607F10C0311461846184B98472F
S214083DE007F10C0319462046164B984707F10C03B3
S214083DF01846154B984707F118031846134B98476B
S214083E0007F124031846104B98474FF47A70104B66
S214083E10984700230022002138680E4CA04700BFB0
S214083E203437BD4690BD00BFAD2F08002CA0090052
S214083E3009900800892F080088A309001D95080026
S214083E40499008004538080045910800E92F080001
S214083E507D1C08004DD4080090B58DB000AF786082
S214083E6039607B681B6F012B37D0214B9847044677
S214083E7007F124031F4918461F4B984707F12402E9
S214083E8007F11803114618461C4B984707F1180304
S214083E901B4918461B4B984703461A4607F10C035E
S214083EA011461846184B984707F10C031946204642
S214083EB0164B984707F10C031846154B984707F119
S214083EC018031846134B984707F124031846104B57
S214083ED098474FF47A70104B984700234FF0FF32FC
S214083EE0002138680D4CA04700BF3437BD4690BD4A
S214083EF0AD2F08002CA0090009900800892F08009B
S214083F00BCA309001D95080049900800453808001C
S214083F1045910800E92F08007D1C080035D70800E1
S214083F2090B597B000AF78607B681B6F002B37D0D2
S214083F30404B9847044607F124033F4918463F4B31
S214083F40984707F1240207F11803114618463C4B18
S214083F50984707F118033B4918463B4B98470346D2
S214083F601A4607F10C0311461846384B984707F1CE
S214083F700C0319462046364B984707F10C0318469B
S214083F80344B984707F118031846334B984707F100
S214083F90240318462F4B98474FF47A702F4B9847B0
S214083FA001202F4B984778657B6D002B37D1214B26
S214083FB09847044607F148031F4918461F4B984779
S214083FC007F1480207F13C03114618461C4B984770
S214083FD007F13C03234918461B4B984703461A46E5
S214083FE007F1300311461846184B984707F1300377
S214083FF019462046164B984707F130031846154BC6
S214084000984707F13C031846134B984707F14803AF
S2140840101846104B98474FF47A70104B98477B68B1
S2140840205B8B01339AB27B685A837B6D18465C3784
S214084030BD4690BDAD2F08002CA0090009900800C9
S214084040892F0800F4A309001D9508004990080068
S2140840504538080045910800E92F08007D1C08002F
S21408406061D3080078A3090090B58DB000AF7860DA
S21408407039607B681B6F012B37D0214B9847044665
S21408408007F124031F4918461F4B984707F12402D7
S21408409007F11803114618461C4B984707F11803F2
S2140840A01B4918461B4B984703461A4607F10C034C
S2140840B011461846184B984707F10C031946204630
S2140840C0164B984707F10C031846154B984707F107
S2140840D018031846134B984707F124031846104B45
S2140840E098474FF47A70104B984700234FF0FF32EA
S2140840F0002138680D4CA04700BF3437BD4690BD38
S214084100AD2F08002CA0090009900800892F080088
S2140841102CA409001D950800499008004538080099
S21408412045910800E92F08007D1C080035D70800CF
S21408413090B58DB000AF786039607B681B6F012B37
S21408414037D0214B9847044607F124031F491846E1
S2140841501F4B984707F1240207F118031146184623
S2140841601C4B984707F118031B4918461B4B9847E2
S21408417003461A4607F10C0311461846184B98478B
S21408418007F10C0319462046164B984707F10C030F
S2140841901846154B984707F118031846134B9847C7
S2140841A007F124031846104B98474FF47A70104BC3
S2140841B0984700230022002138680E4CA04700BF0D
S2140841C03437BD4690BD00BFAD2F08002CA00900AF
S2140841D009900800892F08005CA409001D950800AE
S2140841E0499008004538080045910800E92F08005E
S2140841F07D1C08004DD4080090B599B000AFF86053
S214084200B9607A60FB681B6F002B37D0414B984724
S214084210044607F12C0340491846404B984707F1D7
S2140842202C0207F12003114618463D4B984707F124
S21408423020033C4918463C4B984703461A4607F164
S214084240140311461846394B984707F114031946C4
S2140842502046374B984707F114031846354B9847BE
S21408426007F120031846344B984707F12C031846E5
S214084270304B98474FF47A70304B98477968B8684F
S2140842802F4B9847F865FB6D002B37D1214B984785
S214084290044607F1500320491846204B984707F173
S2140842A0500207F14403114618461D4B984707F17C
S2140842B04403244918461C4B984703461A4607F1F8
S2140842C0380311461846194B984707F1380319461C
S2140842D02046174B984707F138031846154B98475A
S2140842E007F144031846144B984707F1500318463D
S2140842F0104B98474FF47A70104B9847FB681B8B07
S21408430001339AB2FB681A83FB6D18466437BD46BC
S21408431090BD00BFAD2F08002CA00900099008002A
S214084320892F080090A409001D95080049900800E8
S2140843304538080045910800E92F08007D1C08004C
S214084340F9D3080078A3090090B58DB000AF78605F
S21408435039607B681B6F012B37D0214B9847044682
S21408436007F124031F4918461F4B984707F12402F4
S21408437007F11803114618461C4B984707F118030F
S2140843801B4918461B4B984703461A4607F10C0369
S21408439011461846184B984707F10C03194620464D
S2140843A0164B984707F10C031846154B984707F124
S2140843B018031846134B984707F124031846104B62
S2140843C098474FF47A70104B984700230022002134
S2140843D038680E4CA04700BF3437BD4690BD00BFB6
S2140843E0AD2F08002CA0090009900800892F0800A6
S2140843F0CCA409001D950800499008004538080017
S21408440045910800E92F08007D1C08004DD40800D7
S21408441090B58DB000AF786039607B681B6F012B54
S21408442037D0214B9847044607F124031F491846FE
S2140844301F4B984707F1240207F118031146184640
S2140844401C4B984707F118031B4918461B4B9847FF
S21408445003461A4607F10C0311461846184B9847A8
S21408446007F10C0319462046164B984707F10C032C
S2140844701846154B984707F118031846134B9847E4
S21408448007F124031846104B98474FF47A70104BE0
S214084490984700234FF0FF32002138680D4CA0479C
S2140844A000BF3437BD4690BDAD2F08002CA00900CC
S2140844B009900800892F080000A509001D95080026
S2140844C0499008004538080045910800E92F08007B
S2140844D07D1C080035D7080080B582B000AF78602C
S2140844E039607B68012B07D13B684FF6FF72934211
S2140844F002D10348034B984700BF0837BD4680BD26
S214084500A81307206932080080B500AF4FF6FF7180
S2140845100120014B984780BDD944080090B595B056
S21408452000AF78607B68002B37D1414B984704462C
S21408453007F120033F4918463F4B984707F12002EA
S21408454007F11403114618463C4B984707F1140325
S2140845503B4918463B4B984703461A4607F108035B
S21408456011461846384B984707F10803194620465F
S214084570364B984707F108031846354B984707F116
S21408458014031846334B984707F120031846304B58
S21408459098474FF47A70304B9847304B1B78092B66
S2140845A037D9234B9847044607F144032149184650
S2140845B0214B984707F1440207F13803114618467D
S2140845C01E4B984707F13803254918461D4B984750
S2140845D003461A4607F12C03114618461A4B984705
S2140845E007F12C0319462046184B984707F12C0369
S2140845F01846174B984707F138031846154B98473F
S21408460007F144031846124B98474FF47A70124B3A
S2140846109847124B1B785A1CD1B2104A117019468B
S214084620104A7B6842F8213000BF5437BD4690BD1B
S214084630AD2F080034A5090009900800892F080046
S21408464044A509001D95080049900800453808004B
S21408465045910800E92F08007D1C08004C14072027
S21408466074A509002414072080B584B000AF7860CC
S2140846700023FB600A4B1B781A46FB689A420BDD40
S214084680084AFB6852F8233079681846064B98475C
S214084690FB680133FB60EDE700BF1037BD4680BD01
S2140846A04C140720241407200148080080B582B05F
S2140846B000AF00237B600A4B1B781A467B689A4239
S2140846C00ADD084A7B6852F823301846064B984796
S2140846D07B6801337B60EEE700BF0837BD4680BDC8
S2140846E04C140720241407201949080080B584B004
S2140846F000AFF8607A603B600B46FB72FB68FA7A9C
S2140847001A70FB6800225A61FB6800229A61FB68EF
S2140847100022DA61F868094B9847F868084B98470A
S2140847207968F868074B98473968F868064B9847D9
S214084730FB6818461037BD4680BD00BFDD47080039
S2140847401D4508004D4708009547080090B583B0FA
S21408475000AF786039600B4B386898470A4C4FF0C2
S21408476000020A4BA04703460C4619462246084B49
S21408477008461146984702467B685A6000BF0C37C1
S214084780BD4690BD912609007D27090000408F4050
S2140847902D2D090090B583B000AF786039600B4BBB
S2140847A0386898470A4C4FF000020A4BA047034661
S2140847B00C4619462246084B0846114698470246B4
S2140847C07B68DA6000BF0C37BD4690BD91260900AD
S2140847D07D27090000408F402D2D090080B483B046
S2140847E000AF78607B6800229A607B6800221A61B6
S2140847F07B6800225A7000BF0C37BD4680BC7047E5
S21408480080B582B000AF786039607B681B78184640
S2140848103E4B98470346012B05D17B685B78002BF7
S21408482001D1012300E00023002B29D07B689A6879
S2140848303B681A447B689A607B685A687B689B6802
S2140848409A4294BF01230023DBB2002B59D07B6821
S21408485000221A617B6801225A702D4B984702463F
S2140848607B685B69194610462A4B9847284B984739
S21408487002467B68DB6919461046264B984740E097
S2140848807B681B781846214B98470346002B05D1B2
S2140848907B685B78012B01D1012300E00023002B05
S2140848A029D07B681A693B681A447B681A617B685A
S2140848B0DA687B681B699A4294BF01230023DBB23F
S2140848C0002B1ED07B6800229A607B6800225A70F4
S2140848D00F4B984702467B685B69194610460D4B96
S2140848E098470B4B984702467B689B6919461046C3
S2140848F0084B984705E07B6800221A617B6800220F
S2140849009A6000BF0837BD4680BD00BF312008004A
S214084910AD2F0800913D080080B582B000AF7860E2
S2140849200F4B9847034618460E4B984702467B6837
S2140849305A610B4B9847034618460A4B9847024657
S2140849407B689A61064B984703461846054B984776
S21408495002467B685A6100BF0837BD4680BD00BF67
S214084960AD2F0800453C080080B582B000AF7860DF
S214084970064A7B681A600023002B02D07868044B2E
S21408498098477B6818460837BD4680BDC4A5090009
S2140849908D78080080B582B000AF78607868054BDF
S2140849A098477868044B98477B6818460837BD468A
S2140849B080BD00BF694908008D78080080B485B0BE
S2140849C000AFF860B9607A603B60FB68BA685A6006
S2140849D0FB687A689A603A68FB68DA60FB680622C1
S2140849E01A70FB6800225A70FB6800221A74FB686B
S2140849F000225A74FB6818461437BD4680BC7047B8
S214084A0080B483B000AF78600B46FB701346BB706B
S214084A107B68FA781A707B68BA785A7000BF0C37C9
S214084A20BD4680BC704700BF80B582B000AF7860D6
S214084A307B681B7C03F00103002B03D17B685B7843
S214084A40032B11D07B681A7C1B4BA3FB0213D908D7
S214084A500B469B000B445B00D31ADBB2002B0BD132
S214084A607B685B78022B07D17B685B7C83F001034D
S214084A70DAB27B685A740EE07B685B78012B03D148
S214084A807B6801225A7406E07B685B78002B02D1AB
S214084A907B6800225A747B685B7C19467868074BEB
S214084AA098477B681B7C0133DAB27B681A7400BFB0
S214084AB00837BD4680BD00BFCDCCCCCCC14A080067
S214084AC080B582B000AF78600B46FB70FB78002B91
S214084AD000F09C807B681B78062B00F2AA8001A257
S214084AE052F823F0014B0800274B08004D4B0800EE
S214084AF0734B0800994B0800BF4B0800E54B0800AD
S214084B007B685B68002118464C4B98477B689B6817
S214084B1001211846494B98477B68DB6801211846EF
S214084B20464B984785E07B685B6801211846434BEF
S214084B3098477B689B6800211846404B98477B68D7
S214084B40DB68012118463D4B984772E07B685B6836
S214084B5001211846394B98477B689B6801211846FF
S214084B60364B98477B68DB6800211846334B9847D6
S214084B705FE07B685B6800211846304B98477B6887
S214084B809B68002118462D4B98477B68DB680121F7
S214084B9018462A4B98474CE07B685B680121184604
S214084BA0264B98477B689B6800211846234B9847F6
S214084BB07B68DB6800211846204B984739E07B68FD
S214084BC05B68002118461D4B98477B689B68012147
S214084BD018461A4B98477B68DB6800211846174B1F
S214084BE0984726E07B685B6800211846134B984771
S214084BF07B689B6800211846104B98477B68DB68E3
S214084C00002118460D4B984700BF12E07B685B688A
S214084C1001211846094B98477B689B68012118466E
S214084C20064B98477B68DB6801211846034B984774
S214084C30FFE700BF0837BD4680BD00BF291F080034
S214084C4080B485B000AFF860B9601346FB71FB68A6
S214084C5000221A70FB68BA685A60FB68FA791A72FA
S214084C60FB6800225A72FB6800229A72FB68184694
S214084C701437BD4680BC704780B483B000AF7860F8
S214084C807B6801221A7000BF0C37BD4680BC70478F
S214084C9080B483B000AF78607B6802221A7000BFC9
S214084CA00C37BD4680BC704780B483B000AF7860D0
S214084CB07B6800221A7000BF0C37BD4680BC704760
S214084CC080B582B000AF78607B685A7A2C4BA3FB1D
S214084CD0021359080B465B000B44D31ADBB2002BB1
S214084CE003D17B681B78032B10D07B685A7A254B38
S214084CF0A3FB0213D9080B461B015B1AD31ADBB2B7
S214084D00002B0BD17B681B78022B07D17B689B7A1C
S214084D1083F00103DAB27B689A720EE07B681B7830
S214084D20012B03D17B6801229A7206E07B681B7808
S214084D30002B02D17B6800229A727B681B7A002BB4
S214084D400BD07B685B681A467B689B7AC3F10103C5
S214084D50194610460C4B984708E07B685B681A466D
S214084D607B689B7A19461046074B98477B685B7AA0
S214084D700133DAB27B685A7200BF0837BD4680BD79
S214084D80ABAAAAAA89888888291F080080B483B095
S214084D9000AF7860044A7B681A607B6818460C3750
S214084DA0BD4680BC704700BFC4A5090090B583B057
S214084DB000AF78600B467B807B681846324B984776
S214084DC0324A7B681A607B68181D352334223321E3
S214084DD02F4CA0477B68183300222F2118462D4BEE
S214084DE098477B682433002230211846294B984779
S214084DF07B683033002231211846264B98477B685B
S214084E003C33002232211846224B98477B684833A9
S214084E100122482118461F4B98477B6854330122C5
S214084E20492118461B4B98477B68603300220D21A2
S214084E301846184B98477B6803F16C0032233222D9
S214084E401621154CA0477B6803F18C0032233222CA
S214084E501721114CA0477B6803F1AC00322332229D
S214084E6018210D4CA0477B6803F1CC003223322270
S214084E701921094CA0477B687A88A3F8EC207B6840
S214084E8018460C37BD4690BD8D4D0800ACA50900E8
S214084E90BD490800414C0800ED46080090B585B0AD
S214084EA002AF7860074B98477A683223019303234A
S214084EB000934FF4FA730449044CA04700BF0C371C
S214084EC0BD4690BDAD2F0800A0A50900D93808003A
S214084ED080B582B000AF78607B6804331846144B00
S214084EE098477B6818331846124B98477B682433D4
S214084EF01846104B98477B68303318460D4B984732
S214084F007B683C3318460B4B98477B6848331846F3
S214084F10084B98477B6854331846064B98477B6877
S214084F2060331846034B984700BF0837BD4680BD18
S214084F30294A0800C14C080080B582B000AF7860E6
S214084F40084A7B681A607B681846074B9847002310
S214084F50002B02D07868054B98477B6818460837B8
S214084F60BD4680BDACA50900694908008D780800D3
S214084F7080B582B000AF78607868054B9847786847
S214084F80044B98477B6818460837BD4680BD00BF67
S214084F90394F08008D78080080B582B000AF786079
S214084FA0064A7B681A600023002B02D07868044BF8
S214084FB098477B6818460837BD4680BD90A7090005
S214084FC08D78080080B582B000AF78607868054BA9
S214084FD098477868044B98477B6818460837BD4654
S214084FE080BD00BF994F08008D78080080B582B054
S214084FF000AF78607B6808331846034B98477B6891
S21408500018460837BD4680BD4591080090B583B060
S21408501000AF7860154A7B681A60154A7B685A6044
S2140850207B681433002B0CD07B68143303F5C874E4
S2140850307B6814339C4204D0143C20460D4B98479A
S214085040F6E77B68043318460B4B98477B68184688
S2140850500A4B98470023002B02D07868084B9847DD
S2140850607B6818460C37BD4690BD00BF60A7090090
S2140850707CA70900ED4F0800994F08006949080009
S2140850808D780800A0F10400C0E700BF80B582B0A4
S21408509000AF78607868054B98477868044B98475F
S2140850A07B6818460837BD4680BD00BF0D5008000F
S2140850B08D780800A0F10400E8E700BF80B483B04C
S2140850C000AF7860044A7B681A607B6818460C371D
S2140850D0BD4680BC704700BF90A7090080B582B067
S2140850E000AF78607B68083304491846044B984735
S2140850F07B6818460837BD4680BD00BFD4A50900A2
S21408510009900800B0B582B000AF78607B68184692
S214085110264B98477B6804331846254B9847254AFC
S2140851207B681A60244A7B685A607B6801221A7278
S2140851307B6800225A727B680022DA607B6800224D
S2140851401A617B68143313241D46B4F1FF3F05D05B
S21408515028461A4B98471435013CF6E77B68002228
S214085160A3F8A4217B680022A3F8A6217B68002266
S214085170A3F8A8217B68002283F8AA217B6800226E
S21408518083F8AB217B6803F5D67318460C4B984713
S2140851907B6814334FF4C87200211846094B9847A9
S2140851A07B6818460837BD46B0BD00BF8D4D080061
S2140851B0BD50080060A709007CA70900DD5008005C
S2140851C08DA40800C53C090090B585B002AF78608C
S2140851D0144B98477A68022300934FF4FA731249DF
S2140851E0124CA0470F4B9847034600221421184636
S2140851F00F4B984702467B68DA600A4B9847034687
S21408520018460C4B984702467B681A617B685B7A9F
S214085210002B02D07868084B984700BF0C37BD466D
S21408522090BD00BFAD2F0800D8A50900A938080012
S214085230F9410800213F08003D52080090B58DB09E
S21408524000AF7860274B9847044607F10C032649B9
S2140852501846264B984707F10C0319462046244B58
S214085260984707F10C031846224B984720212248F6
S214085270224B9847034683F00103DBB2002B14D079
S214085280184B9847044607F118031D491846174B4C
S214085290984707F1180319462046154B984707F113
S2140852A018031846134B984717E07B68012283F8C3
S2140852B0AB210C4B9847044607F1240311491846BE
S2140852C00A4B984707F1240319462046084B984787
S2140852D007F124031846074B984700BF3437BD46E6
S2140852E090BD00BFAD2F0800DCA509000990080096
S2140852F04538080045910800A818072089A808001E
S21408530000A609004CA6090090B587B000AF7860E3
S214085310154B9847044607F10C0314491846144BD6
S214085320984707F10C0319462046124B984707F191
S2140853300C031846104B98477B681B7A83F00103CA
S214085340DBB2002B0BD07B681B7A83F00103DBB241
S214085350002B04D04FF47A70084B984702E0786820
S214085360074B9847E8E700BFAD2F080070A609006E
S21408537009900800453808004591080001DF080034
S2140853804155080080B586B000AFF8600B467A60D5
S214085390FB723B4B984778613A4B98470246FB6846
S2140853A01B6919461046384B9847FB68B3F8A8316E
S2140853B0142B0DD1FB6893F8AA31FF2B5CD0FB6841
S2140853C093F8AA310133DAB2FB6883F8AA2153E0CE
S2140853D0FB68B3F8A4311946FA680B469B000B44E1
S2140853E09B00134414337A691A60FB68B3F8A43137
S2140853F01946FA680B469B000B449B001344183367
S214085400FA7A1A70FB68B3F8A4311A4613469B005A
S21408541013449B001833FA68134404337968184613
S2140854201A4B9847FB68B3F8A83101339AB2FB6861
S214085430A3F8A821FB68B3F8A431122B05D8FB689B
S214085440B3F8A43101339AB200E00022FB68A3F84F
S214085450A4210C4B98470246FB68DB6819461046A1
S2140854600B4B9847074B98470246FB681B6919463B
S2140854701046084B984700E000BF1837BD4680BD69
S214085480B11B0800AD2F080069400800B992080053
S2140854904943080031410800A0F10400FFF772BF35
S2140854A080B483B000AF786039603B685A687B6820
S2140854B05A607B6818460C37BD4680BC704700BFEC
S2140854C080B582B000AF786039607B683A6811466C
S2140854D01846074B98473B689A687B689A603B680B
S2140854E0DA687B68DA607B6818460837BD4680BD90
S2140854F0A154080080B582B000AF786039607B6838
S2140855003A68114618460D4B98477B6803F1100118
S2140855100C223B681033B2F1FF3F05D018780870AC
S21408552001310133013AF6E73B681A6A7B681A626A
S2140855307B6818460837BD4680BD00BFC1540800C2
S214085540B0B5A0B000AF78607B6893F8AA31002B9E
S21408555059D07B6893F8AA31FF2B14D1914B984702
S214085560044607F1080390491846904B984707F1F8
S2140855700803194620468E4B984707F10803184635
S2140855808C4B98473BE0874B9847044607F12C031B
S21408559089491846854B984707F12C0207F12003DE
S2140855A011461846854B98477B6893F8AA2107F159
S2140855B0200311461846824B9847034681491846E9
S2140855C0814B984703461A4607F1140311461846B6
S2140855D07E4B984707F1140319462046744B9847A4
S2140855E007F114031846734B984707F1200318462B
S2140855F0774B984707F12C0318466E4B98477B68FD
S214085600002283F8AA21674B984702467B68DB6826
S214085610194610466F4B98477B681B7A002B1FD09D
S214085620604B984704467B68B3F8A6311A4613467B
S2140856309B0013449B0010337A6813441A1D07F125
S214085640380379681846644B984707F138031946B3
S2140856502046574B984707F138031846554B984746
S2140856607B685B7A002B6FD07B6893F8AB31002B96
S2140856706AD07B6803F5D6731846584B9847034696
S21408568083F00103DBB2002B33D07B6803F5D675B5
S21408569007F144001323524A5249534CA04707F1D6
S2140856A0440319462846514B98477B6803F5D6733A
S2140856B018464A4B9847034683F00103DBB2002B93
S2140856C017D0384B9847044607F1680348491846E8
S2140856D0364B984707F1680319462046344B9847D7
S2140856E007F168031846334B98477B68002283F80F
S2140856F0AB217B6803F5D6747B68B3F8A6311A46E7
S21408570013469B0013449B0010337A6813441A1DF3
S21408571007F17403796818462F4B984707F1740306
S21408572019462046334B984707F174031846214B11
S21408573098477B68B3F8A831012B05D87B6803F532
S214085740D67318462C4B9847164B984702467B68E4
S2140857501B6919461046294B98477B68B3F8A83149
S214085760013B9AB27B68A3F8A8217B68B3F8A631F8
S214085770122B05D87B68B3F8A63101339AB200E03D
S21408578000227B68A3F8A621064B984702467B684A
S2140857901B69194610461A4B984700BF8037BD4606
S2140857A0B0BD00BFAD2F08009CA6090009900800F0
S2140857B04538080045910800C8A60900892F080042
S2140857C075950800D4A609001D950800499008009C
S2140857D0E92F08001144080005580800E9A6080043
S2140857E0ECA60900A8180720C9AA0800F55408005E
S2140857F0F4A60900F9790800ADA608006940080073
S2140858003141080080B58EB000AFF860B9607A60A4
S21408581007F1140330491846304B98477B681B79C4
S214085820002B02D0012B07D00DE007F114032C49FA
S21408583018462C4B98470DE007F114032A491846DA
S214085840284B984706E007F1140328491846254BC5
S214085850984700BF7B68196807F12C030A22184688
S214085860234B984707F12C0207F1200311461846E8
S214085870204B984707F120031F4918461F4B9847A7
S214085880024607F11403194610461D4B984703466F
S2140858901C491846194B984702467B680833194630
S2140858A01046174B984703461946F868164B98470C
S2140858B007F120031846154B984707F12C0318469E
S2140858C0134B984707F114031846114B984700BF27
